{
  "_format": "hh-sol-artifact-1",
  "contractName": "MetaLink",
  "sourceName": "contracts/metaLink.sol",
  "abi": [
    {
      "inputs": [
        {
          "internalType": "string",
          "name": "username",
          "type": "string"
        },
        {
          "components": [
            {
              "internalType": "string",
              "name": "firstName",
              "type": "string"
            },
            {
              "internalType": "string",
              "name": "lastName",
              "type": "string"
            },
            {
              "internalType": "string",
              "name": "email",
              "type": "string"
            },
            {
              "internalType": "string",
              "name": "homeAddress",
              "type": "string"
            },
            {
              "internalType": "string",
              "name": "dateOfBirth",
              "type": "string"
            },
            {
              "internalType": "string",
              "name": "phoneNumber",
              "type": "string"
            }
          ],
          "internalType": "struct MetaLink.BasicInfo",
          "name": "basicInfo",
          "type": "tuple"
        },
        {
          "components": [
            {
              "internalType": "string",
              "name": "education",
              "type": "string"
            },
            {
              "internalType": "string",
              "name": "workHistory",
              "type": "string"
            },
            {
              "internalType": "string",
              "name": "jobTitle",
              "type": "string"
            },
            {
              "internalType": "string",
              "name": "info",
              "type": "string"
            },
            {
              "internalType": "string[]",
              "name": "skills",
              "type": "string[]"
            },
            {
              "internalType": "string",
              "name": "imageURL",
              "type": "string"
            }
          ],
          "internalType": "struct MetaLink.ProfessionalInfo",
          "name": "professionalInfo",
          "type": "tuple"
        },
        {
          "components": [
            {
              "internalType": "string",
              "name": "x",
              "type": "string"
            },
            {
              "internalType": "string",
              "name": "instagram",
              "type": "string"
            },
            {
              "internalType": "string",
              "name": "discord",
              "type": "string"
            },
            {
              "internalType": "string",
              "name": "github",
              "type": "string"
            },
            {
              "internalType": "string",
              "name": "linkedin",
              "type": "string"
            }
          ],
          "internalType": "struct MetaLink.SocialLinks",
          "name": "socialLinks",
          "type": "tuple"
        },
        {
          "components": [
            {
              "internalType": "bool",
              "name": "education",
              "type": "bool"
            },
            {
              "internalType": "bool",
              "name": "workHistory",
              "type": "bool"
            },
            {
              "internalType": "bool",
              "name": "phoneNumber",
              "type": "bool"
            },
            {
              "internalType": "bool",
              "name": "homeAddress",
              "type": "bool"
            },
            {
              "internalType": "bool",
              "name": "dateOfBirth",
              "type": "bool"
            }
          ],
          "internalType": "struct MetaLink.Visibility",
          "name": "visibility",
          "type": "tuple"
        }
      ],
      "name": "createUser",
      "outputs": [],
      "stateMutability": "nonpayable",
      "type": "function"
    },
    {
      "inputs": [
        {
          "internalType": "string",
          "name": "username",
          "type": "string"
        },
        {
          "components": [
            {
              "internalType": "string",
              "name": "firstName",
              "type": "string"
            },
            {
              "internalType": "string",
              "name": "lastName",
              "type": "string"
            },
            {
              "internalType": "string",
              "name": "email",
              "type": "string"
            },
            {
              "internalType": "string",
              "name": "homeAddress",
              "type": "string"
            },
            {
              "internalType": "string",
              "name": "dateOfBirth",
              "type": "string"
            },
            {
              "internalType": "string",
              "name": "phoneNumber",
              "type": "string"
            }
          ],
          "internalType": "struct MetaLink.BasicInfo",
          "name": "basicInfo",
          "type": "tuple"
        },
        {
          "components": [
            {
              "internalType": "string",
              "name": "education",
              "type": "string"
            },
            {
              "internalType": "string",
              "name": "workHistory",
              "type": "string"
            },
            {
              "internalType": "string",
              "name": "jobTitle",
              "type": "string"
            },
            {
              "internalType": "string",
              "name": "info",
              "type": "string"
            },
            {
              "internalType": "string[]",
              "name": "skills",
              "type": "string[]"
            },
            {
              "internalType": "string",
              "name": "imageURL",
              "type": "string"
            }
          ],
          "internalType": "struct MetaLink.ProfessionalInfo",
          "name": "professionalInfo",
          "type": "tuple"
        },
        {
          "components": [
            {
              "internalType": "string",
              "name": "x",
              "type": "string"
            },
            {
              "internalType": "string",
              "name": "instagram",
              "type": "string"
            },
            {
              "internalType": "string",
              "name": "discord",
              "type": "string"
            },
            {
              "internalType": "string",
              "name": "github",
              "type": "string"
            },
            {
              "internalType": "string",
              "name": "linkedin",
              "type": "string"
            }
          ],
          "internalType": "struct MetaLink.SocialLinks",
          "name": "socialLinks",
          "type": "tuple"
        },
        {
          "components": [
            {
              "internalType": "bool",
              "name": "education",
              "type": "bool"
            },
            {
              "internalType": "bool",
              "name": "workHistory",
              "type": "bool"
            },
            {
              "internalType": "bool",
              "name": "phoneNumber",
              "type": "bool"
            },
            {
              "internalType": "bool",
              "name": "homeAddress",
              "type": "bool"
            },
            {
              "internalType": "bool",
              "name": "dateOfBirth",
              "type": "bool"
            }
          ],
          "internalType": "struct MetaLink.Visibility",
          "name": "visibility",
          "type": "tuple"
        }
      ],
      "name": "editUser",
      "outputs": [],
      "stateMutability": "nonpayable",
      "type": "function"
    },
    {
      "inputs": [
        {
          "internalType": "address",
          "name": "userAddress",
          "type": "address"
        }
      ],
      "name": "getUserByAddress",
      "outputs": [
        {
          "components": [
            {
              "internalType": "string",
              "name": "firstName",
              "type": "string"
            },
            {
              "internalType": "string",
              "name": "lastName",
              "type": "string"
            },
            {
              "internalType": "string",
              "name": "email",
              "type": "string"
            },
            {
              "internalType": "string",
              "name": "homeAddress",
              "type": "string"
            },
            {
              "internalType": "string",
              "name": "dateOfBirth",
              "type": "string"
            },
            {
              "internalType": "string",
              "name": "phoneNumber",
              "type": "string"
            }
          ],
          "internalType": "struct MetaLink.BasicInfo",
          "name": "basicInfo",
          "type": "tuple"
        },
        {
          "components": [
            {
              "internalType": "string",
              "name": "education",
              "type": "string"
            },
            {
              "internalType": "string",
              "name": "workHistory",
              "type": "string"
            },
            {
              "internalType": "string",
              "name": "jobTitle",
              "type": "string"
            },
            {
              "internalType": "string",
              "name": "info",
              "type": "string"
            },
            {
              "internalType": "string[]",
              "name": "skills",
              "type": "string[]"
            },
            {
              "internalType": "string",
              "name": "imageURL",
              "type": "string"
            }
          ],
          "internalType": "struct MetaLink.ProfessionalInfo",
          "name": "professionalInfo",
          "type": "tuple"
        },
        {
          "components": [
            {
              "internalType": "string",
              "name": "x",
              "type": "string"
            },
            {
              "internalType": "string",
              "name": "instagram",
              "type": "string"
            },
            {
              "internalType": "string",
              "name": "discord",
              "type": "string"
            },
            {
              "internalType": "string",
              "name": "github",
              "type": "string"
            },
            {
              "internalType": "string",
              "name": "linkedin",
              "type": "string"
            }
          ],
          "internalType": "struct MetaLink.SocialLinks",
          "name": "socialLinks",
          "type": "tuple"
        },
        {
          "components": [
            {
              "internalType": "bool",
              "name": "education",
              "type": "bool"
            },
            {
              "internalType": "bool",
              "name": "workHistory",
              "type": "bool"
            },
            {
              "internalType": "bool",
              "name": "phoneNumber",
              "type": "bool"
            },
            {
              "internalType": "bool",
              "name": "homeAddress",
              "type": "bool"
            },
            {
              "internalType": "bool",
              "name": "dateOfBirth",
              "type": "bool"
            }
          ],
          "internalType": "struct MetaLink.Visibility",
          "name": "visibility",
          "type": "tuple"
        }
      ],
      "stateMutability": "view",
      "type": "function"
    },
    {
      "inputs": [
        {
          "internalType": "string",
          "name": "username",
          "type": "string"
        }
      ],
      "name": "getUserByUsername",
      "outputs": [
        {
          "components": [
            {
              "internalType": "string",
              "name": "firstName",
              "type": "string"
            },
            {
              "internalType": "string",
              "name": "lastName",
              "type": "string"
            },
            {
              "internalType": "string",
              "name": "email",
              "type": "string"
            },
            {
              "internalType": "string",
              "name": "homeAddress",
              "type": "string"
            },
            {
              "internalType": "string",
              "name": "dateOfBirth",
              "type": "string"
            },
            {
              "internalType": "string",
              "name": "phoneNumber",
              "type": "string"
            }
          ],
          "internalType": "struct MetaLink.BasicInfo",
          "name": "basicInfo",
          "type": "tuple"
        },
        {
          "components": [
            {
              "internalType": "string",
              "name": "education",
              "type": "string"
            },
            {
              "internalType": "string",
              "name": "workHistory",
              "type": "string"
            },
            {
              "internalType": "string",
              "name": "jobTitle",
              "type": "string"
            },
            {
              "internalType": "string",
              "name": "info",
              "type": "string"
            },
            {
              "internalType": "string[]",
              "name": "skills",
              "type": "string[]"
            },
            {
              "internalType": "string",
              "name": "imageURL",
              "type": "string"
            }
          ],
          "internalType": "struct MetaLink.ProfessionalInfo",
          "name": "professionalInfo",
          "type": "tuple"
        },
        {
          "components": [
            {
              "internalType": "string",
              "name": "x",
              "type": "string"
            },
            {
              "internalType": "string",
              "name": "instagram",
              "type": "string"
            },
            {
              "internalType": "string",
              "name": "discord",
              "type": "string"
            },
            {
              "internalType": "string",
              "name": "github",
              "type": "string"
            },
            {
              "internalType": "string",
              "name": "linkedin",
              "type": "string"
            }
          ],
          "internalType": "struct MetaLink.SocialLinks",
          "name": "socialLinks",
          "type": "tuple"
        },
        {
          "components": [
            {
              "internalType": "bool",
              "name": "education",
              "type": "bool"
            },
            {
              "internalType": "bool",
              "name": "workHistory",
              "type": "bool"
            },
            {
              "internalType": "bool",
              "name": "phoneNumber",
              "type": "bool"
            },
            {
              "internalType": "bool",
              "name": "homeAddress",
              "type": "bool"
            },
            {
              "internalType": "bool",
              "name": "dateOfBirth",
              "type": "bool"
            }
          ],
          "internalType": "struct MetaLink.Visibility",
          "name": "visibility",
          "type": "tuple"
        }
      ],
      "stateMutability": "view",
      "type": "function"
    },
    {
      "inputs": [
        {
          "internalType": "address",
          "name": "userAddress",
          "type": "address"
        }
      ],
      "name": "getUsernameByAddress",
      "outputs": [
        {
          "internalType": "string",
          "name": "",
          "type": "string"
        }
      ],
      "stateMutability": "view",
      "type": "function"
    },
    {
      "inputs": [
        {
          "internalType": "string",
          "name": "username",
          "type": "string"
        }
      ],
      "name": "getVisibility",
      "outputs": [
        {
          "components": [
            {
              "internalType": "bool",
              "name": "education",
              "type": "bool"
            },
            {
              "internalType": "bool",
              "name": "workHistory",
              "type": "bool"
            },
            {
              "internalType": "bool",
              "name": "phoneNumber",
              "type": "bool"
            },
            {
              "internalType": "bool",
              "name": "homeAddress",
              "type": "bool"
            },
            {
              "internalType": "bool",
              "name": "dateOfBirth",
              "type": "bool"
            }
          ],
          "internalType": "struct MetaLink.Visibility",
          "name": "",
          "type": "tuple"
        }
      ],
      "stateMutability": "view",
      "type": "function"
    },
    {
      "inputs": [
        {
          "internalType": "string",
          "name": "username",
          "type": "string"
        },
        {
          "internalType": "bool",
          "name": "education",
          "type": "bool"
        },
        {
          "internalType": "bool",
          "name": "workHistory",
          "type": "bool"
        },
        {
          "internalType": "bool",
          "name": "phoneNumber",
          "type": "bool"
        },
        {
          "internalType": "bool",
          "name": "homeAddress",
          "type": "bool"
        },
        {
          "internalType": "bool",
          "name": "dateOfBirth",
          "type": "bool"
        }
      ],
      "name": "setVisibility",
      "outputs": [],
      "stateMutability": "nonpayable",
      "type": "function"
    }
  ],
  "bytecode": "0x6080604052348015600f57600080fd5b50612c938061001f6000396000f3fe608060405234801561001057600080fd5b506004361061007d5760003560e01c8063bb6228b01161005b578063bb6228b014610118578063d1577cac14610134578063ed1a998d14610150578063f86a29c7146101805761007d565b8063320ba8f71461008257806369c212f6146100b25780639f42af63146100e5575b600080fd5b61009c60048036038101906100979190611a71565b61019c565b6040516100a99190611b3d565b60405180910390f35b6100cc60048036038101906100c79190611bb6565b6102cc565b6040516100dc9493929190611f0e565b60405180910390f35b6100ff60048036038101906100fa9190611a71565b6103d1565b60405161010f9493929190611f0e565b60405180910390f35b610132600480360381019061012d91906124b9565b610f3a565b005b61014e600480360381019061014991906125a5565b6112a9565b005b61016a60048036038101906101659190611bb6565b6113dc565b6040516101779190612698565b60405180910390f35b61019a600480360381019061019591906124b9565b6114ad565b005b6101a4611769565b6000826040516101b491906126f6565b908152602001604051809103902060120160009054906101000a900460ff16610212576040517f08c379a000000000000000000000000000000000000000000000000000000000815260040161020990612759565b60405180910390fd5b60008260405161022291906126f6565b90815260200160405180910390206014016040518060a00160405290816000820160009054906101000a900460ff161515151581526020016000820160019054906101000a900460ff161515151581526020016000820160029054906101000a900460ff161515151581526020016000820160039054906101000a900460ff161515151581526020016000820160049054906101000a900460ff1615151515815250509050919050565b6102d46117a2565b6102dc6117d8565b6102e461180e565b6102ec611769565b6000600160008773ffffffffffffffffffffffffffffffffffffffff1673ffffffffffffffffffffffffffffffffffffffff1681526020019081526020016000208054610338906127a8565b80601f0160208091040260200160405190810160405280929190818152602001828054610364906127a8565b80156103b15780601f10610386576101008083540402835291602001916103b1565b820191906000526020600020905b81548152906001019060200180831161039457829003601f168201915b505050505090506103c1816103d1565b9450945094509450509193509193565b6103d96117a2565b6103e16117d8565b6103e961180e565b6103f1611769565b60008560405161040191906126f6565b908152602001604051809103902060120160009054906101000a900460ff1661045f576040517f08c379a00000000000000000000000000000000000000000000000000000000081526004016104569061284b565b60405180910390fd5b6000808660405161047091906126f6565b908152602001604051809103902090506040518060c0016040528082600001805461049a906127a8565b80601f01602080910402602001604051908101604052809291908181526020018280546104c6906127a8565b80156105135780601f106104e857610100808354040283529160200191610513565b820191906000526020600020905b8154815290600101906020018083116104f657829003601f168201915b5050505050815260200182600101805461052c906127a8565b80601f0160208091040260200160405190810160405280929190818152602001828054610558906127a8565b80156105a55780601f1061057a576101008083540402835291602001916105a5565b820191906000526020600020905b81548152906001019060200180831161058857829003601f168201915b505050505081526020018260030180546105be906127a8565b80601f01602080910402602001604051908101604052809291908181526020018280546105ea906127a8565b80156106375780601f1061060c57610100808354040283529160200191610637565b820191906000526020600020905b81548152906001019060200180831161061a57829003601f168201915b50505050508152602001826004018054610650906127a8565b80601f016020809104026020016040519081016040528092919081815260200182805461067c906127a8565b80156106c95780601f1061069e576101008083540402835291602001916106c9565b820191906000526020600020905b8154815290600101906020018083116106ac57829003601f168201915b505050505081526020018260050180546106e2906127a8565b80601f016020809104026020016040519081016040528092919081815260200182805461070e906127a8565b801561075b5780601f106107305761010080835404028352916020019161075b565b820191906000526020600020905b81548152906001019060200180831161073e57829003601f168201915b50505050508152602001826008018054610774906127a8565b80601f01602080910402602001604051908101604052809291908181526020018280546107a0906127a8565b80156107ed5780601f106107c2576101008083540402835291602001916107ed565b820191906000526020600020905b8154815290600101906020018083116107d057829003601f168201915b505050505081525094506040518060c00160405280826006018054610811906127a8565b80601f016020809104026020016040519081016040528092919081815260200182805461083d906127a8565b801561088a5780601f1061085f5761010080835404028352916020019161088a565b820191906000526020600020905b81548152906001019060200180831161086d57829003601f168201915b505050505081526020018260070180546108a3906127a8565b80601f01602080910402602001604051908101604052809291908181526020018280546108cf906127a8565b801561091c5780601f106108f15761010080835404028352916020019161091c565b820191906000526020600020905b8154815290600101906020018083116108ff57829003601f168201915b50505050508152602001826009018054610935906127a8565b80601f0160208091040260200160405190810160405280929190818152602001828054610961906127a8565b80156109ae5780601f10610983576101008083540402835291602001916109ae565b820191906000526020600020905b81548152906001019060200180831161099157829003601f168201915b5050505050815260200182600f0180546109c7906127a8565b80601f01602080910402602001604051908101604052809291908181526020018280546109f3906127a8565b8015610a405780601f10610a1557610100808354040283529160200191610a40565b820191906000526020600020905b815481529060010190602001808311610a2357829003601f168201915b5050505050815260200182601001805480602002602001604051908101604052809291908181526020016000905b82821015610b1a578382906000526020600020018054610a8d906127a8565b80601f0160208091040260200160405190810160405280929190818152602001828054610ab9906127a8565b8015610b065780601f10610adb57610100808354040283529160200191610b06565b820191906000526020600020905b815481529060010190602001808311610ae957829003601f168201915b505050505081526020019060010190610a6e565b505050508152602001826011018054610b32906127a8565b80601f0160208091040260200160405190810160405280929190818152602001828054610b5e906127a8565b8015610bab5780601f10610b8057610100808354040283529160200191610bab565b820191906000526020600020905b815481529060010190602001808311610b8e57829003601f168201915b505050505081525093506040518060a0016040528082600d018054610bcf906127a8565b80601f0160208091040260200160405190810160405280929190818152602001828054610bfb906127a8565b8015610c485780601f10610c1d57610100808354040283529160200191610c48565b820191906000526020600020905b815481529060010190602001808311610c2b57829003601f168201915b5050505050815260200182600c018054610c61906127a8565b80601f0160208091040260200160405190810160405280929190818152602001828054610c8d906127a8565b8015610cda5780601f10610caf57610100808354040283529160200191610cda565b820191906000526020600020905b815481529060010190602001808311610cbd57829003601f168201915b5050505050815260200182600b018054610cf3906127a8565b80601f0160208091040260200160405190810160405280929190818152602001828054610d1f906127a8565b8015610d6c5780601f10610d4157610100808354040283529160200191610d6c565b820191906000526020600020905b815481529060010190602001808311610d4f57829003601f168201915b5050505050815260200182600e018054610d85906127a8565b80601f0160208091040260200160405190810160405280929190818152602001828054610db1906127a8565b8015610dfe5780601f10610dd357610100808354040283529160200191610dfe565b820191906000526020600020905b815481529060010190602001808311610de157829003601f168201915b5050505050815260200182600a018054610e17906127a8565b80601f0160208091040260200160405190810160405280929190818152602001828054610e43906127a8565b8015610e905780601f10610e6557610100808354040283529160200191610e90565b820191906000526020600020905b815481529060010190602001808311610e7357829003601f168201915b50505050508152509250806014016040518060a00160405290816000820160009054906101000a900460ff161515151581526020016000820160019054906101000a900460ff161515151581526020016000820160029054906101000a900460ff161515151581526020016000820160039054906101000a900460ff161515151581526020016000820160049054906101000a900460ff1615151515815250509150509193509193565b84600281604051610f4b91906126f6565b908152602001604051809103902060009054906101000a900460ff1615610fa7576040517f08c379a0000000000000000000000000000000000000000000000000000000008152600401610f9e906128b7565b60405180910390fd5b60008087604051610fb891906126f6565b908152602001604051809103902090508560000151816000019081610fdd9190612a8d565b508560200151816001019081610ff39190612a8d565b50868160020190816110059190612a8d565b50856040015181600301908161101b9190612a8d565b5085606001518160040190816110319190612a8d565b5085608001518160050190816110479190612a8d565b508560a0015181600801908161105d9190612a8d565b5084600001518160060190816110739190612a8d565b5084602001518160070190816110899190612a8d565b50846040015181600901908161109f9190612a8d565b50836000015181600a0190816110b59190612a8d565b50836020015181600b0190816110cb9190612a8d565b50836040015181600c0190816110e19190612a8d565b50836060015181600d0190816110f79190612a8d565b50836080015181600e01908161110d9190612a8d565b50846060015181600f0190816111239190612a8d565b50846080015181601001908051906020019061114092919061183d565b508460a001518160110190816111569190612a8d565b5060018160120160006101000a81548160ff021916908315150217905550828160140160008201518160000160006101000a81548160ff02191690831515021790555060208201518160000160016101000a81548160ff02191690831515021790555060408201518160000160026101000a81548160ff02191690831515021790555060608201518160000160036101000a81548160ff02191690831515021790555060808201518160000160046101000a81548160ff021916908315150217905550905050600160028860405161122e91906126f6565b908152602001604051809103902060006101000a81548160ff02191690831515021790555086600160003373ffffffffffffffffffffffffffffffffffffffff1673ffffffffffffffffffffffffffffffffffffffff168152602001908152602001600020908161129f9190612a8d565b5050505050505050565b6000866040516112b991906126f6565b908152602001604051809103902060120160009054906101000a900460ff16611317576040517f08c379a000000000000000000000000000000000000000000000000000000000815260040161130e90612bab565b60405180910390fd5b6000808760405161132891906126f6565b90815260200160405180910390209050858160140160000160006101000a81548160ff021916908315150217905550848160140160000160016101000a81548160ff021916908315150217905550838160140160000160026101000a81548160ff021916908315150217905550828160140160000160036101000a81548160ff021916908315150217905550818160140160000160046101000a81548160ff02191690831515021790555050505050505050565b6060600160008373ffffffffffffffffffffffffffffffffffffffff1673ffffffffffffffffffffffffffffffffffffffff1681526020019081526020016000208054611428906127a8565b80601f0160208091040260200160405190810160405280929190818152602001828054611454906127a8565b80156114a15780601f10611476576101008083540402835291602001916114a1565b820191906000526020600020905b81548152906001019060200180831161148457829003601f168201915b50505050509050919050565b6000856040516114bd91906126f6565b908152602001604051809103902060120160009054906101000a900460ff1661151b576040517f08c379a000000000000000000000000000000000000000000000000000000000815260040161151290612c3d565b60405180910390fd5b6000808660405161152c91906126f6565b9081526020016040518091039020905084600001518160000190816115519190612a8d565b5084602001518160010190816115679190612a8d565b50846040015181600301908161157d9190612a8d565b5084606001518160040190816115939190612a8d565b5084608001518160050190816115a99190612a8d565b508460a001518160080190816115bf9190612a8d565b5083600001518160060190816115d59190612a8d565b5083602001518160070190816115eb9190612a8d565b5083604001518160090190816116019190612a8d565b50826000015181600a0190816116179190612a8d565b50826020015181600b01908161162d9190612a8d565b50826040015181600c0190816116439190612a8d565b50826060015181600d0190816116599190612a8d565b50826080015181600e01908161166f9190612a8d565b50836060015181600f0190816116859190612a8d565b5083608001518160100190805190602001906116a292919061183d565b508360a001518160110190816116b89190612a8d565b50818160140160008201518160000160006101000a81548160ff02191690831515021790555060208201518160000160016101000a81548160ff02191690831515021790555060408201518160000160026101000a81548160ff02191690831515021790555060608201518160000160036101000a81548160ff02191690831515021790555060808201518160000160046101000a81548160ff021916908315150217905550905050505050505050565b6040518060a001604052806000151581526020016000151581526020016000151581526020016000151581526020016000151581525090565b6040518060c001604052806060815260200160608152602001606081526020016060815260200160608152602001606081525090565b6040518060c001604052806060815260200160608152602001606081526020016060815260200160608152602001606081525090565b6040518060a0016040528060608152602001606081526020016060815260200160608152602001606081525090565b828054828255906000526020600020908101928215611885579160200282015b828111156118845782518290816118749190612a8d565b509160200191906001019061185d565b5b5090506118929190611896565b5090565b5b808211156118b657600081816118ad91906118ba565b50600101611897565b5090565b5080546118c6906127a8565b6000825580601f106118d857506118f7565b601f0160209004906000526020600020908101906118f691906118fa565b5b50565b5b808211156119135760008160009055506001016118fb565b5090565b6000604051905090565b600080fd5b600080fd5b600080fd5b600080fd5b6000601f19601f8301169050919050565b7f4e487b7100000000000000000000000000000000000000000000000000000000600052604160045260246000fd5b61197e82611935565b810181811067ffffffffffffffff8211171561199d5761199c611946565b5b80604052505050565b60006119b0611917565b90506119bc8282611975565b919050565b600067ffffffffffffffff8211156119dc576119db611946565b5b6119e582611935565b9050602081019050919050565b82818337600083830152505050565b6000611a14611a0f846119c1565b6119a6565b905082815260208101848484011115611a3057611a2f611930565b5b611a3b8482856119f2565b509392505050565b600082601f830112611a5857611a5761192b565b5b8135611a68848260208601611a01565b91505092915050565b600060208284031215611a8757611a86611921565b5b600082013567ffffffffffffffff811115611aa557611aa4611926565b5b611ab184828501611a43565b91505092915050565b60008115159050919050565b611acf81611aba565b82525050565b60a082016000820151611aeb6000850182611ac6565b506020820151611afe6020850182611ac6565b506040820151611b116040850182611ac6565b506060820151611b246060850182611ac6565b506080820151611b376080850182611ac6565b50505050565b600060a082019050611b526000830184611ad5565b92915050565b600073ffffffffffffffffffffffffffffffffffffffff82169050919050565b6000611b8382611b58565b9050919050565b611b9381611b78565b8114611b9e57600080fd5b50565b600081359050611bb081611b8a565b92915050565b600060208284031215611bcc57611bcb611921565b5b6000611bda84828501611ba1565b91505092915050565b600081519050919050565b600082825260208201905092915050565b60005b83811015611c1d578082015181840152602081019050611c02565b60008484015250505050565b6000611c3482611be3565b611c3e8185611bee565b9350611c4e818560208601611bff565b611c5781611935565b840191505092915050565b600060c0830160008301518482036000860152611c7f8282611c29565b91505060208301518482036020860152611c998282611c29565b91505060408301518482036040860152611cb38282611c29565b91505060608301518482036060860152611ccd8282611c29565b91505060808301518482036080860152611ce78282611c29565b91505060a083015184820360a0860152611d018282611c29565b9150508091505092915050565b600081519050919050565b600082825260208201905092915050565b6000819050602082019050919050565b6000611d468383611c29565b905092915050565b6000602082019050919050565b6000611d6682611d0e565b611d708185611d19565b935083602082028501611d8285611d2a565b8060005b85811015611dbe5784840389528151611d9f8582611d3a565b9450611daa83611d4e565b925060208a01995050600181019050611d86565b50829750879550505050505092915050565b600060c0830160008301518482036000860152611ded8282611c29565b91505060208301518482036020860152611e078282611c29565b91505060408301518482036040860152611e218282611c29565b91505060608301518482036060860152611e3b8282611c29565b91505060808301518482036080860152611e558282611d5b565b91505060a083015184820360a0860152611e6f8282611c29565b9150508091505092915050565b600060a0830160008301518482036000860152611e998282611c29565b91505060208301518482036020860152611eb38282611c29565b91505060408301518482036040860152611ecd8282611c29565b91505060608301518482036060860152611ee78282611c29565b91505060808301518482036080860152611f018282611c29565b9150508091505092915050565b6000610100820190508181036000830152611f298187611c62565b90508181036020830152611f3d8186611dd0565b90508181036040830152611f518185611e7c565b9050611f606060830184611ad5565b95945050505050565b600080fd5b600080fd5b600060c08284031215611f8957611f88611f69565b5b611f9360c06119a6565b9050600082013567ffffffffffffffff811115611fb357611fb2611f6e565b5b611fbf84828501611a43565b600083015250602082013567ffffffffffffffff811115611fe357611fe2611f6e565b5b611fef84828501611a43565b602083015250604082013567ffffffffffffffff81111561201357612012611f6e565b5b61201f84828501611a43565b604083015250606082013567ffffffffffffffff81111561204357612042611f6e565b5b61204f84828501611a43565b606083015250608082013567ffffffffffffffff81111561207357612072611f6e565b5b61207f84828501611a43565b60808301525060a082013567ffffffffffffffff8111156120a3576120a2611f6e565b5b6120af84828501611a43565b60a08301525092915050565b600067ffffffffffffffff8211156120d6576120d5611946565b5b602082029050602081019050919050565b600080fd5b60006120ff6120fa846120bb565b6119a6565b90508083825260208201905060208402830185811115612122576121216120e7565b5b835b8181101561216957803567ffffffffffffffff8111156121475761214661192b565b5b8086016121548982611a43565b85526020850194505050602081019050612124565b5050509392505050565b600082601f8301126121885761218761192b565b5b81356121988482602086016120ec565b91505092915050565b600060c082840312156121b7576121b6611f69565b5b6121c160c06119a6565b9050600082013567ffffffffffffffff8111156121e1576121e0611f6e565b5b6121ed84828501611a43565b600083015250602082013567ffffffffffffffff81111561221157612210611f6e565b5b61221d84828501611a43565b602083015250604082013567ffffffffffffffff81111561224157612240611f6e565b5b61224d84828501611a43565b604083015250606082013567ffffffffffffffff81111561227157612270611f6e565b5b61227d84828501611a43565b606083015250608082013567ffffffffffffffff8111156122a1576122a0611f6e565b5b6122ad84828501612173565b60808301525060a082013567ffffffffffffffff8111156122d1576122d0611f6e565b5b6122dd84828501611a43565b60a08301525092915050565b600060a082840312156122ff576122fe611f69565b5b61230960a06119a6565b9050600082013567ffffffffffffffff81111561232957612328611f6e565b5b61233584828501611a43565b600083015250602082013567ffffffffffffffff81111561235957612358611f6e565b5b61236584828501611a43565b602083015250604082013567ffffffffffffffff81111561238957612388611f6e565b5b61239584828501611a43565b604083015250606082013567ffffffffffffffff8111156123b9576123b8611f6e565b5b6123c584828501611a43565b606083015250608082013567ffffffffffffffff8111156123e9576123e8611f6e565b5b6123f584828501611a43565b60808301525092915050565b61240a81611aba565b811461241557600080fd5b50565b60008135905061242781612401565b92915050565b600060a0828403121561244357612442611f69565b5b61244d60a06119a6565b9050600061245d84828501612418565b600083015250602061247184828501612418565b602083015250604061248584828501612418565b604083015250606061249984828501612418565b60608301525060806124ad84828501612418565b60808301525092915050565b600080600080600061012086880312156124d6576124d5611921565b5b600086013567ffffffffffffffff8111156124f4576124f3611926565b5b61250088828901611a43565b955050602086013567ffffffffffffffff81111561252157612520611926565b5b61252d88828901611f73565b945050604086013567ffffffffffffffff81111561254e5761254d611926565b5b61255a888289016121a1565b935050606086013567ffffffffffffffff81111561257b5761257a611926565b5b612587888289016122e9565b92505060806125988882890161242d565b9150509295509295909350565b60008060008060008060c087890312156125c2576125c1611921565b5b600087013567ffffffffffffffff8111156125e0576125df611926565b5b6125ec89828a01611a43565b96505060206125fd89828a01612418565b955050604061260e89828a01612418565b945050606061261f89828a01612418565b935050608061263089828a01612418565b92505060a061264189828a01612418565b9150509295509295509295565b600082825260208201905092915050565b600061266a82611be3565b612674818561264e565b9350612684818560208601611bff565b61268d81611935565b840191505092915050565b600060208201905081810360008301526126b2818461265f565b905092915050565b600081905092915050565b60006126d082611be3565b6126da81856126ba565b93506126ea818560208601611bff565b80840191505092915050565b600061270282846126c5565b915081905092915050565b7f7573657220646f6573206e6f7420657869737473000000000000000000000000600082015250565b600061274360148361264e565b915061274e8261270d565b602082019050919050565b6000602082019050818103600083015261277281612736565b9050919050565b7f4e487b7100000000000000000000000000000000000000000000000000000000600052602260045260246000fd5b600060028204905060018216806127c057607f821691505b6020821081036127d3576127d2612779565b5b50919050565b7f7573657220646f6573206e6f742065786973742077697468207468697320757360008201527f65726e616d650000000000000000000000000000000000000000000000000000602082015250565b600061283560268361264e565b9150612840826127d9565b604082019050919050565b6000602082019050818103600083015261286481612828565b9050919050565b7f757365726e616d6520616c726561647920657869737473000000000000000000600082015250565b60006128a160178361264e565b91506128ac8261286b565b602082019050919050565b600060208201905081810360008301526128d081612894565b9050919050565b60008190508160005260206000209050919050565b60006020601f8301049050919050565b600082821b905092915050565b6000600883026129397fffffffffffffffffffffffffffffffffffffffffffffffffffffffffffffffff826128fc565b61294386836128fc565b95508019841693508086168417925050509392505050565b6000819050919050565b6000819050919050565b600061298a6129856129808461295b565b612965565b61295b565b9050919050565b6000819050919050565b6129a48361296f565b6129b86129b082612991565b848454612909565b825550505050565b600090565b6129cd6129c0565b6129d881848461299b565b505050565b5b818110156129fc576129f16000826129c5565b6001810190506129de565b5050565b601f821115612a4157612a12816128d7565b612a1b846128ec565b81016020851015612a2a578190505b612a3e612a36856128ec565b8301826129dd565b50505b505050565b600082821c905092915050565b6000612a6460001984600802612a46565b1980831691505092915050565b6000612a7d8383612a53565b9150826002028217905092915050565b612a9682611be3565b67ffffffffffffffff811115612aaf57612aae611946565b5b612ab982546127a8565b612ac4828285612a00565b600060209050601f831160018114612af75760008415612ae5578287015190505b612aef8582612a71565b865550612b57565b601f198416612b05866128d7565b60005b82811015612b2d57848901518255600182019150602085019450602081019050612b08565b86831015612b4a5784890151612b46601f891682612a53565b8355505b6001600288020188555050505b505050505050565b7f55736572206e6f7420666f756e64200000000000000000000000000000000000600082015250565b6000612b95600f8361264e565b9150612ba082612b5f565b602082019050919050565b60006020820190508181036000830152612bc481612b88565b9050919050565b7f7573657220646f6573206e6f7420657869737473207769746820676976656e2060008201527f757365726e616d65000000000000000000000000000000000000000000000000602082015250565b6000612c2760288361264e565b9150612c3282612bcb565b604082019050919050565b60006020820190508181036000830152612c5681612c1a565b905091905056fea2646970667358221220ddd90d5728bbdc7e8c30824561c89077c8631b695b8decaa67afa31dd90bbc0f64736f6c634300081c0033",
  "linkReferences": {},
  "deployedLinkReferences": {}
}